:020000040800F2
:1000000000500020152D00085D2D00085D2D000812
:100010005D2D00085D2D00085D2D0008000000002A
:100020000000000000000000000000002111000896
:100030005D2D000800000000311200087912000850
:100040005D2D00085D2D00085D2D00085D2D000868
:100050005D2D00085D2D00085D2D00085D2D000858
:100060005D2D00085D2D00085D2D00085D2D000848
:100070005D2D00085D2D00085D2D00085D2D000838
:100080005D2D00085D2D00085D2D00085D2D000828
:100090005D2D00085D2D00085D2D00085D2D000818
:1000A0005D2D00085D2D00085D2D00085D2D000808
:1000B0005D2D00085D2D00085D2D00085D2D0008F8
:1000C0005D2D00085D2D00085D2D00085D2D0008E8
:1000D0005D2D00085D2D00085D2D00085D2D0008D8
:1000E0005D2D00085D2D00085D2D0008000000005A
:1000F0000000000000000000000000000000000000
:0C01000000000000000000005FF808F1A3
:1001100010B5054C237833B9044B13B10448AFF341
:1001200000800123237010BD680000200000000043
:10013000F831000808B5034B1BB103490348AFF37E
:10014000008008BD000000006C000020F8310008AD
:10015000034613F8012B002AFBD1181A0138704707
:1001600080B582B000AF7860084B1B78002B02D1BD
:10017000786800F00DF8054B1B780133DAB2034BB9
:100180001A707B6818460837BD4680BD8400002081
:1001900080B483B000AF7860244B12221A60244BE5
:1001A0001B68234A43F48033136000BF204B1B6855
:1001B00003F40033002B0CBF01230023DBB2002B20
:1001C000F4D11B4B1B681A4A43F080631360184B31
:1001D0005B68174A43F480335360154B5B68144ADD
:1001E00043F4E0135360124B5B68114A43F480639D
:1001F00053600F4B1B680E4A43F08073136000BFBF
:100200000B4B1B6803F00073002B0CBF0123002372
:10021000DBB2002BF4D1064B5B68054A43F00203C6
:10022000536000BF0C37BD4680BC704700200240C1
:100230000010024080B483B000AF78600A4B1B7896
:10024000002B05D1094B00229A61084B0022DA618C
:10025000054B1B780133DAB2034B1A707B681846E2
:100260000C37BD4680BC704785000020001002405E
:1002700080B483B000AF7860054B9B69044A43F0BB
:100280000403936100BF0C37BD4680BC704700BFBC
:100290000010024080B483B000AF7860054B9B69CA
:1002A000044A43F00803936100BF0C37BD4680BC8D
:1002B000704700BF0010024080B483B000AF786088
:1002C000054B9B69044A43F01003936100BF0C3750
:1002D000BD4680BC704700BF0010024080B483B0B0
:1002E00000AF7860054B9B69044A43F001039361BA
:1002F00000BF0C37BD4680BC704700BF00100240F5
:1003000080B483B000AF78607B6818460C37BD4678
:1003100080BC704780B584B000AFF860B9607A6087
:10032000FB68BA685A60FB687A689A60FB685B6829
:10033000184600F061FCFB689B68184600F05CFC06
:10034000FB6818461037BD4680BD80B582B000AF4F
:10035000786039607B685B68184600F027FC7B6832
:100360009B68184600F035FC7B683968184602F037
:1003700009FB00BF0837BD4680BD80B582B000AF25
:10038000786039607B689B68184600F00FFC7B68DA
:100390005B68184600F01DFC7B683968184602F05F
:1003A000F1FA00BF0837BD4680BD80B582B000AF0E
:1003B000786039607B685B68184600F01DFC7B68DC
:1003C0009B68184600F005FC7B683968184602F007
:1003D0002DFB00BF0837BD4680BD80B582B000AFA1
:1003E000786039607B685B68184600F0DFFB7B68EB
:1003F0009B68184600F000FC7B683968184602F0DC
:10040000EDFA00BF0837BD4680BD80B582B000AFB1
:1004100078607B685B68184600F0EEFB7B689B6841
:10042000184600F0E9FB00BF0837BD4680BD00005C
:1004300080B58AB000AF78600023FB617B68002B39
:1004400022D00823DB437A689A421BD808227B68B3
:1004500013447B607B6803F00703002B14D07B6898
:1004600003F00703C3F108037B617B69DB437A6810
:100470009A4204D87A687B6913447B6004E00023C5
:100480007B6001E000237B6001F0C8FC3B4B1B68F4
:10049000002B04D100F0C6F8384B01221A607B68AB
:1004A000002B63DB7B68002B60D0354B1B687A68C0
:1004B0009A425BD8334B3B62324B1B687B6204E051
:1004C0007B6A3B627B6A1B687B627B6A5B687A68DB
:1004D0009A4203D97B6A1B68002BF1D17B6A2A4AB6
:1004E000934243D03B6A1B6808221344FB617B6A3A
:1004F0001A683B6A1A607B6A5A687B68D21A0823BA
:100500005B009A4222D97A6A7B6813443B617B6A1A
:100510005A687B68D21A3B695A607B6A7A685A606B
:100520003B695B68FB60174BBB6102E0BB691B6802
:10053000BB61BB691B685B68FA689A42F6D8BB6905
:100540001A683B691A60BB693A691A600C4B1A68F1
:100550007B6A5B68D31A0A4A13607B6A5B6843F064
:1005600000427B6A5A607B6A00221A6001F064FCD8
:10057000FB6918462837BD4680BD00BF982800207B
:1005800000000020882800209028002080B586B038
:1005900000AF78607B683B617B68002B39D0082313
:1005A0005B423A6913443B613B69FB60FB685B68F3
:1005B000DB0F03F00103DBB2002B2AD0FB681B68C2
:1005C000002B26D1FB685B6823F00042FB685A6071
:1005D00001F024FCFB685B68BB60104B7B6102E0B0
:1005E0007B691B687B617B691B685B68BA689A42A0
:1005F000F6D87B691A68FB681A607B69FA681A602A
:10060000FB685A68064B1B681344054A136001F0E7
:1006100013FC00BF1837BD4680BD00BF88280020EE
:100620000000002080B483B000AF0F4B23F007031D
:100630007B600E4A7B6813600C4B00225A600C4BA7
:1006400042F2F8725A600A4B00221A607B683B60E3
:100650003B6842F2F8725A603B68054A1A6000BF74
:100660000C37BD4680BC70478F00002088280020D2
:100670009028002080B483B000AF78607B6803F1DD
:1006800008027B685A607B684FF0FF329A607B6893
:1006900003F108027B68DA607B6803F108027B687B
:1006A0001A617B6800221A6000BF0C37BD4680BC0F
:1006B000704780B483B000AF78607B6800221A6115
:1006C00000BF0C37BD4680BC704780B485B000AF1A
:1006D000786039603B681B68BB60BB68B3F1FF3F63
:1006E00003D17B681B69FB600CE07B680833FB600F
:1006F00002E0FB685B68FB60FB685B681B68BA68CC
:100700009A42F6D2FB685A683B685A603B685B685D
:100710003A689A603B68FA689A60FB683A685A607F
:100720003B687A681A617B681B685A1C7B681A6090
:1007300000BF1437BD4680BC704780B485B000AFA1
:1007400078607B681B69FB607B685B687A6892688D
:100750009A607B689B687A6852685A60FB685B683D
:100760007A689A4203D17B689A68FB685A607B6812
:1007700000221A61FB681B685A1EFB681A60FB683E
:100780001B6818461437BD4680BC704780B584B0DE
:1007900000AF78600D4B1B680121184602F0AAF9E2
:1007A0000A4B1B68184602F01DFA0346FB73084B00
:1007B000186807F10F0100234FF0FF3200F06EFEC2
:1007C000642001F08DFA00BFEAE700BF6C29002029
:1007D000B428002080B584B000AF78600023FB739C
:1007E000414B1B6807F10F014FF0FF32184600F034
:1007F000FFFEFB7B772B12D13C4800F0FDFB3C4811
:1008000000F010FC3B4800F00DFC3B4800F00AFCF7
:100810003A4B1B6819463A48FFF797FDE0E7FB7B28
:10082000732B12D1334800F0E7FB314800F0FAFB9C
:100830002E4800F0F7FB304800F0DEFB2F4B1B6822
:1008400019462F48FFF799FDCAE7FB7B642B12D1AD
:10085000274800F0D1FB274800F0E4FB234800F0D4
:10086000E1FB254800F0DEFB264B1B6819462448B7
:10087000FFF79BFDB4E7FB7B612B12D11C4800F016
:10088000BBFB1A4800F0CEFB1A4800F0CBFB1A481D
:1008900000F0C8FB1B4B1B6819461948FFF79DFD6C
:1008A0009EE7FB7B702B0FD1124800F0A5FB104890
:1008B00000F0A2FB0D4800F09FFB0F4800F0B2FBD8
:1008C0000F48FFF7A2FD8BE7094800F095FB0948A8
:1008D00000F092FB054800F0A5FB074800F0A2FBE2
:1008E0000748FFF792FD7BE7B42800202829002065
:1008F000182900203829002048290020080000205D
:10090000702900200C00002080B584B002AF3B1D90
:100910001846FFF78FFC3B1D1846FFF7BBFC3B1D3D
:100920001846FFF7A5FC002201210A2000F054FD23
:100930000346104A13600F4B1B68002B18D000238E
:1009400001930323009300234FF4C8720A490B4814
:1009500001F09AF8002301930323009300234FF43E
:10096000C8720749074801F08FF801F029FA00BF63
:1009700000BFFDE7B4280020103200088D070008F2
:100980001C320008D507000880B582B000AF78603F
:100990007B68184602F072F87B6818460837BD4637
:1009A00080BD80B582B000AF78607B682033184688
:1009B00000F05DFB7B681033184600F058FB7B6845
:1009C000184600F054FB7B6818460837BD4680BDCA
:1009D00090B585B000AF786039607B68012B71D12C
:1009E0003B684FF6FF7293426CD107F10C03184637
:1009F00002F0B5F907F10C031A464649464802F0E1
:100A00001BFA07F10C03184602F0AAF9032305228A
:100A10004249434800F00AF9032301224149424870
:100A200000F004F90B2306223C49404800F0FEF890
:100A30000323042239493E4800F0F8F8032300223A
:100A400036493C4800F0F2F80B23002235493A4879
:100A500000F0ECF8032301223049384800F0E6F8B2
:100A6000032302222D49364800F0E0F80323032235
:100A70002A49344800F0DAF8032309222949324888
:100A800000F0D4F8314B1B68314A126819463148DE
:100A900001F01AFF2249304800F078F824492F4825
:100AA00000F074F82E491C2002F0E7F804462C49A7
:100AB000204601F0EDFF2B4B1C60284A26492A48AE
:100AC000FFF728FC7B68002B1FD13B684FF6FF72B5
:100AD00093421AD12448FFF757FF1E4801F0CEFF7A
:100AE000194800F0C4FA174800F0C1FA144800F0A1
:100AF000BEFA124800F0BBFA0D48FFF752FF084853
:100B0000FFF74FFF044802F073F900BF1437BD46EA
:100B100090BD00BF283200089C280020000801403A
:100B2000B8280020000C0140C8280020D828002048
:100B3000E8280020F8280020082900201829002093
:100B400028290020382900204829002004000020FE
:100B500008000020582900205C290020642900207A
:100B6000003801406C2900207029002080B500AFBA
:100B70004FF6FF710120FFF72BFF80BD80B500AF5E
:100B80004FF6FF710020FFF723FF80BD80B582B0D4
:100B900000AF786039607B683A681A60786800F066
:100BA0002BF87B6818460837BD4680BD80B582B0FB
:100BB00000AF78607B681B68184600F01DFA7B6800
:100BC0001B681033184600F02DFA00BF0837BD46E9
:100BD00080BD80B582B000AF78607B681B68184626
:100BE00000F020FA7B681B681033184600F004FA06
:100BF00000BF0837BD4680BD80B582B000AF7860C9
:100C00007B681B68184600F00DFA7B681B68103380
:100C1000184600F007FA7B681B682033184600F07E
:100C200018FA00BF0837BD4680BD000080B588B007
:100C300000AFF860B9603B601346FB71FB68BA68AF
:100C40001A60FB68FA791A71FB683A689A6007F1D2
:100C50001C031846FFF7EEFABB688F4A934240F038
:100C600086803B68032B37D18C4B1B78002B0CD133
:100C700007F11C031846FFF7FBFAFB681B6800220C
:100C80001A60FB681B6800225A60844B1B78013392
:100C9000DAB2824B1A70FB681B79072B0CD8FB6801
:100CA0001B681968FB681B799B0003229A40FB684C
:100CB0001B680A431A608CE1FB681B685968FB6873
:100CC0001B7903F18043083B9B0003229A40FB6899
:100CD0001B680A435A607CE13B680B2B40F079812A
:100CE0006F4B1B78002B0AD107F11C031846FFF746
:100CF000F5FA6B4B1B780133DAB2694B1A70674B0C
:100D00001B78002B0CD107F11C031846FFF7B0FA33
:100D1000FB681B6800221A60FB681B6800225A608F
:100D20005E4B1B780133DAB25C4B1A70FB681B799F
:100D3000072B0CD8FB681B681968FB681B799B00A4
:100D40000B229A40FB681B680A431A6041E1FB686A
:100D50001B685968FB681B7903F18043083B9B00C3
:100D60000B229A40FB681B680A435A6031E1BB685A
:100D70004C4A934240F09A803B68032B37D14A4B50
:100D80001B78002B0CD107F11C031846FFF782FAE1
:100D9000FB681B6800221A60FB681B6800225A600F
:100DA000414B1B780133DAB23F4B1A70FB681B7959
:100DB000072B0CD8FB681B681968FB681B799B0024
:100DC00003229A40FB681B680A431A6001E1FB6832
:100DD0001B685968FB681B7903F18043083B9B0043
:100DE00003229A40FB681B680A435A60F1E03B68A3
:100DF0000B2B40F0EE802A4B1B78002B0AD107F119
:100E00001C031846FFF76AFA254B1B780133DAB248
:100E1000234B1A70244B1B78002B16D107F11803B3
:100E20001846FFF707FA07F118031846FFF732FADA
:100E3000FB681B6800221A60FB681B6800225A606E
:100E400007F118031846FFF75BFA174B1B780133BD
:100E5000DAB2154B1A70FB681B79072B0CD8FB68AC
:100E60001B681968FB681B799B000B229A40FB6882
:100E70001B680A431A60ACE0FB681B685968FB6892
:100E80001B7903F18043083B9B000B229A40FB68CF
:100E90001B680A435A609CE0000801407C2900203E
:100EA0007F290020000C01407D290020BB684F4AAB
:100EB000934240F08E803B68032B37D14C4B1B781C
:100EC000002B0CD107F11C031846FFF7F5F9FB685E
:100ED0001B6800221A60FB681B6800225A60444BA2
:100EE0001B780133DAB2424B1A70FB681B79072B6F
:100EF0000CD8FB681B681968FB681B799B000322F0
:100F00009A40FB681B680A431A6062E0FB681B6832
:100F10005968FB681B7903F18043083B9B0003225F
:100F20009A40FB681B680A435A6052E03B680B2BEF
:100F30004FD1304B1B78002B0AD107F11C03184608
:100F4000FFF7CCF92B4B1B780133DAB2294B1A701F
:100F5000274B1B78002B16D107F114031846FFF717
:100F600069F907F114031846FFF7A6F9FB681B6837
:100F700000221A60FB681B6800225A6007F1140304
:100F80001846FFF7BDF91A4B1B780133DAB2184B3C
:100F90001A70FB681B79072B0CD8FB681B68196853
:100FA000FB681B799B000B229A40FB681B680A4375
:100FB0001A600EE0FB681B685968FB681B7903F137
:100FC0008043083B9B000B229A40FB681B680A4346
:100FD0005A60F86800F026F807F11C031846FFF77E
:100FE0008FF9FB6818462037BD4680BD00100140D0
:100FF0007E2900207F29002080B483B000AF786074
:101000007B681B68DA687B681B79194601238B4073
:1010100019467B681B680A43DA6000BF0C37BD467F
:1010200080BC704780B483B000AF78607B681B6879
:10103000DA687B681B79194601238B40DB4319462C
:101040007B681B680A40DA6000BF0C37BD4680BC75
:10105000704780B582B000AF78607B680C330021A8
:10106000184601F08FFC00BF0837BD4680BD80B533
:1010700082B000AF78607868FFF7D4FF7B680C33EC
:10108000184601F0FBFC7B6818460837BD4680BD5A
:1010900080B485B000AFF860B9607A60FB68043B4B
:1010A000FB60FB684FF080721A60FB68043BFB60DA
:1010B000BB6823F00102FB681A60FB68043BFB601D
:1010C000084AFB681A60FB68143BFB607A68FB689F
:1010D0001A60FB68203BFB60FB6818461437BD466E
:1010E00080BC7047E910000880B483B000AF0023D3
:1010F0003B604FF0BF0383F31188BFF36F8FBFF3E3
:101100004F8F7B6000BF00BF3B68002BFCD000BF4F
:1011100000BF0C37BD4680BC7047000000000000D7
:10112000074B19680868B0E8F00F80F30988BFF32F
:101130006F8F4FF0000080F311884EF00D0E704756
:101140008429002000BF00BF06480068006880F3C3
:10115000088862B661B6BFF34F8FBFF36F8F00DFB1
:1011600000BF000008ED00E000BF00BF80B582B006
:1011700000AF114B1B687B60104B1B680F4A43F498
:101180007F0313600D4B1B680C4A43F07F431360D1
:101190000B4B00221A6000F091F80A4B00221A60F3
:1011A000FFF7D2FF01F048F8FFF79EFF0023184633
:1011B0000837BD4680BD00BF08ED00E020ED00E02F
:1011C0001CED00E01000002080B483B000AF4FF0B1
:1011D000BF0383F31188BFF36F8FBFF34F8F7B6023
:1011E00000BF054B1B680133034A136000BF0C3777
:1011F000BD4680BC704700BF1000002080B483B0A3
:1012000000AF0A4B1B68013B084A1360074B1B6881
:10121000002B05D100237B607B6883F3118800BF1E
:1012200000BF0C37BD4680BC704700BF10000020D7
:10123000EFF30980BFF36F8F0D4B1A6820E9F00FB1
:1012400010602DE908404FF0BF0080F3118800F0D6
:10125000F3FF4FF0000080F31188BDE808401968E3
:101260000868B0E8F00F80F30988BFF36F8F70470C
:101270008429002000BF00BF80B582B000AF4FF0CE
:10128000BF0383F31188BFF36F8FBFF34F8F7B6072
:1012900000BF00F0C9FE0346002B03D0064B4FF001
:1012A00080521A6000233B603B6883F3118800BFC3
:1012B00000BF0837BD4680BD04ED00E080B400AF3C
:1012C000084B00221A60084B00221A60074B41F6B7
:1012D0003F721A60034B07221A6000BFBD4680BCF4
:1012E000704700BF10E000E018E000E014E000E00C
:1012F00080B584B000AF786039600123FB607B6803
:10130000BB60BB68002B5DD0BB68DB6B002B59D08A
:10131000BB681A6CBB68DB6B0021A3FB0223002BAC
:1013200000D001210B46002B4CD1FFF74DFFBB68CD
:101330001A68BB68DB6BB968096C01FB03F31A44DC
:10134000BB689A60BB6800229A63BB681A68BB6876
:101350005A60BB681A68BB68DB6B013BB968096CF3
:1013600001FB03F31A44BB68DA60BB68FF2283F811
:101370004420BB68FF2283F845203B68002B14D132
:10138000BB681B69002B1AD0BB681033184600F0ED
:10139000AFFF0346002B12D00E4B4FF080521A6065
:1013A000BFF34F8FBFF36F8F09E0BB681033184650
:1013B000FFF760F9BB6824331846FFF75BF9FFF7C6
:1013C0001DFF01E00023FB60FB6818461037BD4697
:1013D00080BD00BF04ED00E080B58AB002AFF860C8
:1013E000B9601346FB710023FB61FB68002B2DD015
:1013F0000021BA68FB68A3FB0223002B00D0012167
:101400000B46002B22D1FB68BA6802FB03F313F1F1
:10141000510F1BD8FB68BA6802FB03F3BB61BB69C1
:1014200050331846FFF704F8F861FB69002B0DD024
:10143000FB697B617B6950337B61FA79FB690093BF
:1014400013467A69B968F86800F005F8FB69184630
:101450002037BD4680BD80B584B000AFF860B9606C
:101460007A60FB70BB68002B03D1BB69BA691A6054
:1014700002E0BB697A681A60BB69FA68DA63BB6923
:10148000BA681A640121B869FFF732FFBB69FA78BC
:1014900083F84C2000BF1037BD4680BD80B58AB0B0
:1014A00000AFF860B9607A603B6000237B62FB6844
:1014B0003B62FFF789FE3B6A9A6B3B6ADB6B9A42A1
:1014C00002D33B68022B29D13A68B968386A00F028
:1014D00031F9F8613B6A5B6A002B10D03B6A243318
:1014E000184600F005FF0346002B13D03F4B4FF08A
:1014F00080521A60BFF34F8FBFF36F8F0AE0FB6912
:10150000002B07D0394B4FF080521A60BFF34F8F3A
:10151000BFF36F8FFFF772FE012363E07B68002B40
:1015200003D1FFF76BFE00235CE07B6A002B06D142
:1015300007F11403184600F0A5FF01237B62FFF7B3
:101540005DFE00F06BFCFFF73FFE3B6A93F8443012
:101550005BB2B3F1FF3F03D13B6A002283F8442022
:101560003B6A93F845305BB2B3F1FF3F03D13B6A6E
:10157000002283F84520FFF741FE3A1D07F11403CE
:101580001146184600F094FF0346002B24D1386A18
:1015900000F0C8F90346002B18D03B6A10337A6874
:1015A0001146184600F08EFE386A00F053F900F03C
:1015B00043FC0346002B7FF47CAF0C4B4FF0805272
:1015C0001A60BFF34F8FBFF36F8F72E7386A00F076
:1015D00041F900F031FC6CE7386A00F03BF900F0AB
:1015E0002BFC002318462837BD4680BD04ED00E0E3
:1015F00080B58AB000AFF860B9607A6000237B6282
:10160000FB683B62FFF7E0FD3B6A9B6BFB61FB699C
:10161000002B1FD0B968386A00F0F6F8FB695A1E33
:101620003B6A9A633B6A1B69002B0FD03B6A1033FD
:10163000184600F05DFE0346002B07D03C4B4FF0F0
:1016400080521A60BFF34F8FBFF36F8FFFF7D6FD45
:10165000012369E07B68002B03D1FFF7CFFD002356
:1016600062E07B6A002B06D107F11403184600F0F4
:1016700009FF01237B62FFF7C1FD00F0CFFBFFF7FD
:10168000A3FD3B6A93F844305BB2B3F1FF3F03D153
:101690003B6A002283F844203B6A93F845305BB2F2
:1016A000B3F1FF3F03D13B6A002283F84520FFF7E7
:1016B000A5FD3A1D07F114031146184600F0F8FE87
:1016C0000346002B23D1386A00F016F90346002B9D
:1016D00017D03B6A24337A681146184600F0F2FDB1
:1016E000386A00F0B7F800F0A7FB0346002B89D159
:1016F0000F4B4FF080521A60BFF34F8FBFF36F8FC5
:1017000080E7386A00F0A6F800F096FB7AE7386ABE
:1017100000F0A0F800F090FB386A00F0EDF8034606
:10172000002B3FF46FAF002318462837BD4680BD1D
:1017300004ED00E080B586B000AFF860B9607A6073
:1017400000237B61FB689B6B3B61FB681B6C002B80
:101750000DD1FB681B68002B4DD1FB689B681846B8
:1017600000F0ACFF7861FB6800229A6043E07B6880
:10177000002B19D1FB685868FB681B6C1A46B968C6
:1017800001F0E4FCFB685A68FB681B6C1A44FB68B8
:101790005A60FB685A68FB689B689A422BD3FB68C7
:1017A0001A68FB685A6026E0FB68D868FB681B6C07
:1017B0001A46B96801F0CAFCFB68DA68FB681B6C62
:1017C0005B421A44FB68DA60FB68DA68FB681B68F6
:1017D0009A4207D2FB689A68FB681B6C5B421A440A
:1017E000FB68DA607B68022B05D13B69002B02D0D5
:1017F0003B69013B3B613B695A1CFB689A637B690F
:1018000018461837BD4680BD80B582B000AF7860FD
:1018100039607B681B6C002B18D07B68DA687B68AA
:101820001B6C1A447B68DA607B68DA687B689B68AB
:101830009A4203D37B681A687B68DA607B68D96850
:101840007B681B6C1A46386801F080FC00BF0837C3
:10185000BD4680BD80B584B000AF7860FFF7B4FCB2
:101860007B6893F84530FB7311E07B685B6A002B63
:1018700012D07B682433184600F03AFD0346002B53
:1018800001D000F05FFEFB7B013BDBB2FB7397F9FD
:101890000F30002BE9DC00E000BF7B68FF2283F8FB
:1018A0004520FFF7ABFCFFF78FFC7B6893F84430D3
:1018B000BB7311E07B681B69002B12D07B6810336F
:1018C000184600F015FD0346002B01D000F03AFE4B
:1018D000BB7B013BDBB2BB7397F90E30002BE9DC1D
:1018E00000E000BF7B68FF2283F84420FFF786FCFE
:1018F00000BF1037BD4680BD80B584B000AF7860B2
:10190000FFF762FC7B689B6B002B02D10123FB601D
:1019100001E00023FB60FFF771FCFB6818461037FD
:10192000BD4680BD80B584B000AF7860FFF74CFC49
:101930007B689A6B7B68DB6B9A4202D10123FB6068
:1019400001E00023FB60FFF759FCFB6818461037E5
:10195000BD4680BD80B400AF01231846BD4680BCA3
:10196000704780B582B000AF7860396001F0C2FB8B
:10197000034616221A604FF0FF3318460837BD465B
:1019800080BD80B582B000AF78604FF0FF317868DD
:10199000FFF7E7FF00BFFDE780B586B000AF7860D6
:1019A000144A154BD31A7B617B693B61134B1B684F
:1019B000002B02D1114B124A1A60104B1A687B6837
:1019C00013443A699A4207D201F094FB03460C2271
:1019D0001A604FF0FF3309E0084B1B68FB60074BB0
:1019E0001A687B681344054A1360FB681846183769
:1019F000BD4680BD0050002000040000802900206A
:101A0000082C002080B400AF00BFBD4680BC7047EA
:101A100080B58AB004AFF860B9607A603B607B68DB
:101A20009B001846FEF704FD38613B69002B13D07C
:101A30005C20FEF7FDFC78617B69002B08D05C22FE
:101A40000021786901F0FAFA7B693A691A6305E0C6
:101A50003869FEF79BFD01E000237B617B69002B69
:101A60000DD0002303937B6902937B6A01933B6A49
:101A700000933B687A68B968F86800F028F87B69D9
:101A800018461837BD4680BD80B588B002AFF860F3
:101A9000B9607A603B607B6A01933B6A00933B6864
:101AA0007A68B968F868FFF7B3FF38613B69002BC3
:101AB00005D0386900F07CF801237B6102E04FF02B
:101AC000FF337B617B6918461837BD4680BD80B502
:101AD00086B000AFF860B9607A603B60BB6A186B93
:101AE0007B689B001A46A52101F0A8FABB6A1A6B15
:101AF0007B6803F18043013B9B0013443B613B69DE
:101B000023F007033B61BB68002B1ED000237B61E1
:101B100012E0BA687B6913441978BA6A7B69134486
:101B200034330A461A70BA687B6913441B78002B59
:101B300006D07B6901337B617B690F2BE9D900E01B
:101B400000BFBB6A002283F843203B6A052B01D902
:101B500005233B62BB6A3A6ADA62BB6A3A6ADA64B4
:101B6000BB6A04331846FEF7A4FDBB6A1833184657
:101B7000FEF79FFDBB6ABA6A1A613B6AC3F10602AF
:101B8000BB6A9A61BB6ABA6A5A623A68F96838698C
:101B9000FFF77EFA0246BB6A1A607B6A002B02D00E
:101BA0007B6ABA6A1A6000BF1837BD4680BD000064
:101BB00080B584B000AF7860FFF706FB414B1B682F
:101BC0000133404A1360404B1B68002B09D13E4A49
:101BD0007B6813603B4B1B68012B10D100F0D6FCD7
:101BE0000DE03A4B1B68002B09D1374B1B68DA6AB2
:101BF0007B68DB6A9A4202D8334A7B681360344BB5
:101C00001B680133324A1360314B1A687B685A648F
:101C10007B68DB6A01229A402E4B1B6813432D4AD6
:101C200013607B68DA6A2C4913469B0013449B00BF
:101C30000B4404331B68FB607B68FA689A60FB689E
:101C40009A687B68DA60FB689B687A6804325A603D
:101C50007B681A1DFB689A607B68DA6A13469B00F2
:101C600013449B001C4A1A447B685A617B68DA6AF9
:101C7000194913469B0013449B000B441B687A6868
:101C8000D26A591C144813469B0013449B0003441A
:101C90001960FFF7B3FA0D4B1B68002B0ED00A4BEF
:101CA0001B68DA6A7B68DB6A9A4207D20B4B4FF0FB
:101CB00080521A60BFF34F8FBFF36F8F00BF103792
:101CC000BD4680BD702A0020842900207C2A002087
:101CD0008C2A0020782A00208829002004ED00E0CA
:101CE00080B584B000AF78600023FB607B68002B78
:101CF00008D000F093F80021786800F063FD00F050
:101D00009BF8F860FB68002B07D1064B4FF0805220
:101D10001A60BFF34F8FBFF36F8F00BF1037BD4600
:101D200080BD00BF04ED00E080B58AB002AF0123A2
:101D3000FB6100233B6100237B6111E01D4A7B694D
:101D4000134419783A467B6913440A461A703A4696
:101D50007B6913441B78002B06D07B6901337B61C0
:101D60007B690F2BEADD00E000BF0023BB6116E0BA
:101D7000114B3B61BB699B00104A134439460193E8
:101D80000023009300234FF496723869FFF77CFE1E
:101D9000F861FB69002B06D0BB690133BB61BB69ED
:101DA000002BE5DD00E000BFFB6918462037BD468B
:101DB00080BD00BF543200085D250008942A002031
:101DC00080B582B000AFFFF7AFFF78607B68012B72
:101DD00015D14FF0BF0383F31188BFF36F8FBFF3AB
:101DE0004F8F3B6000BF094B4FF0FF321A60084B2A
:101DF00001221A60074B00221A60FFF7B7F9064B61
:101E00001B6800BF0837BD4680BD00BF902A002078
:101E10007C2A0020742A00201400002080B400AF27
:101E2000044B1B680133034A136000BFBD4680BCEE
:101E3000704700BF982A002080B588B000AF00230B
:101E4000FB610023BB61FFF7BFF900233B616D4BD2
:101E50001B68013B6B4A13606A4B1B68002B40F008
:101E6000CA80694B1B68002B00F0C5808EE0674B71
:101E7000DB68DB68FB61FB699B6AFB60FB69DB6914
:101E8000FA69126A9A60FB691B6AFA69D2695A6038
:101E9000FB685A68FB6918339A4203D1FB691A6AD6
:101EA000FB685A60FB6900229A62FB681B685A1E35
:101EB000FB681A60FB695B69BB60FB699B68FA6938
:101EC000D2689A60FB69DB68FA6992685A60BB68FD
:101ED0005A68FB6904339A4203D1FB69DA68BB682C
:101EE0005A60FB6900225A61BB681B685A1EBB68B6
:101EF0001A60FB69DB6A01229A40454B1B68134359
:101F0000434A1360FB69DA6A424913469B00134453
:101F10009B000B4404331B687B60FB697A689A6002
:101F20007B689A68FB69DA607B689B68FA690432AF
:101F30005A60FB691A1D7B689A60FB69DA6A13466E
:101F40009B0013449B00334A1A44FB695A61FB69A6
:101F5000DA6A304913469B0013449B000B441B680C
:101F6000FA69D26A591C2B4813469B0013449B0004
:101F700003441960FB69DA6A274B1B68DB6A9A42E3
:101F800004D9264A3B69012142F823101F4B1B68E4
:101F9000002B7FF46CAFFB69002B01D000F074FBC9
:101FA0001F4B1B687B617B69002B12D000F03CF853
:101FB0000346002B04D0194A3B69012142F8231043
:101FC0007B69013B7B617B69002BEFD1144B0022C5
:101FD0001A60124A3B6952F82330002B0BD00123C0
:101FE000BB610D4B1B680F4B4FF080521A60BFF363
:101FF0004F8FBFF36F8FFFF701F9BB69184620378A
:10200000BD4680BD982A0020702A0020302A00207A
:10201000782A00208829002084290020842A002092
:10202000802A002004ED00E080B588B000AF0023D6
:10203000FB61764B1B68002B40F0DE80744B1B6805
:102040000133BB61724ABB691360BB69002B10D1BD
:10205000704B1B687B61704B1B686E4A13606E4A45
:102060007B6913606D4B1B6801336C4A136000F091
:102070000BFB6B4B1B68BA699A42C0F0A880654B9A
:102080001B681B68002B04D1654B4FF0FF321A60B0
:102090009DE0604B1B68DB68DB683B613B695B680C
:1020A000FB60BA69FB689A4203D25D4AFB68136021
:1020B0008DE03B695B69BB603B699B683A69D268AC
:1020C0009A603B69DB683A6992685A60BB685A68F3
:1020D0003B6904339A4203D13B69DA68BB685A60B2
:1020E0003B6900225A61BB681B685A1EBB681A60B4
:1020F0003B699B6A002B1ED03B699B6A7B603B69F6
:10210000DB693A69126A9A603B691B6A3A69D2696B
:102110005A607B685A683B6918339A4203D13B691D
:102120001A6A7B685A603B6900229A627B681B6866
:102130005A1E7B681A603B69DB6A01229A40394B60
:102140001B681343374A13603B69DA6A3649134602
:102150009B0013449B000B4404331B683B603B69AA
:102160003A689A603B689A683B69DA603B689B68AA
:102170003A6904325A603B691A1D3B689A603B69B0
:10218000DA6A13469B0013449B00274A1A443B69B2
:102190005A613B69DA6A244913469B0013449B0049
:1021A0000B441B683A69D26A591C1F4813469B00AE
:1021B00013449B00034419603B69DA6A1B4B1B689C
:1021C000DB6A9A427FF65BAF0123FB6157E7174B4F
:1021D0001B68DA6A144913469B0013449B000B44A6
:1021E0001B68012B01D90123FB61114B1B68002BDC
:1021F00007D00123FB6104E00E4B1B6801330D4A3D
:102200001360FB6918462037BD4680BD982A002020
:10221000742A0020282A00202C2A0020882A002046
:10222000902A0020782A0020882900208429002074
:10223000842A0020802A002080B485B000AF1C4B87
:102240001B68002B03D01B4B01221A602BE0194B9B
:1022500000221A60184B1B687B607B68B3FA83F31B
:10226000FB70FB78C3F11F03FB60FA6813469B0009
:1022700013449B00114A1344BB60BB685B685A68F7
:10228000BB685A60BB685A68BB6808339A4203D17E
:10229000BB68DA68BB685A60BB685B68DB68084A81
:1022A0001360074B1B6800BF1437BD4680BC7047E6
:1022B000982A0020842A0020782A002088290020DB
:1022C0008429002080B582B000AF78603960074B68
:1022D0001B68183319467868FEF7F7F9012138684A
:1022E00000F070FA00BF0837BD4680BD8429002089
:1022F00080B489B000AF78607B68DB68DB68BB6165
:10230000BB699B6A7B61BB69DB69BA69126A9A60C7
:10231000BB691B6ABA69D2695A607B695A68BB6932
:1023200018339A4203D1BB691A6A7B695A60BB6948
:1023300000229A627B691B685A1E7B691A604B4BAC
:102340001B68002B60D1BB695B69FB60BB699B6844
:10235000BA69D2689A60BB69DB68BA6992685A60E8
:10236000FB685A68BB6904339A4203D1BB69DA68D7
:10237000FB685A60BB6900225A61FB681B685A1EE1
:10238000FB681A60BB69DB6A01229A40384B1B6804
:102390001343374A1360BB69DA6A364913469B0018
:1023A00013449B000B4404331B68BB60BB69BA68D1
:1023B0009A60BB689A68BB69DA60BB689B68BA6957
:1023C00004325A60BB691A1DBB689A60BB69DA6A3D
:1023D00013469B0013449B00264A1A44BB695A616A
:1023E000BB69DA6A234913469B0013449B000B44E4
:1023F0001B68BA69D26A591C1E4813469B001344D5
:102400009B00034419601BE01B4B5B683B61BB698D
:102410003A69DA613B699A68BB691A623B699B68F1
:10242000BA6918325A60BB6903F118023B699A60B5
:10243000BB69114A9A62104B1B6801330E4A136044
:10244000BB69DA6A0D4B1B68DB6A9A4205D9012326
:10245000FB610B4B01221A6001E00023FB61FB6969
:1024600018462437BD4680BC704700BF982A00201C
:10247000782A002088290020302A00208429002082
:10248000842A002080B483B000AF7860064B1A68BD
:102490007B681A60054B1A687B685A6000BF0C376E
:1024A000BD4680BC704700BF882A0020742A0020E7
:1024B00080B586B000AF78603960FEF785FE1F4BAF
:1024C0001B683B617B685B683A69D31AFB603B68B9
:1024D0001B68B3F1FF3F02D100237B6126E07B68DC
:1024E0001A68174B1B689A420AD07B685B683A6986
:1024F0009A4205D301237B613B6800221A6015E0F4
:102500003B681B68FA689A420BD23B681A68FB6802
:10251000D21A3B681A607868FFF7B4FF00237B612A
:1025200004E03B6800221A6001237B61FEF766FE2F
:102530007B6918461837BD4680BD00BF742A00204D
:10254000882A002080B400AF034B01221A6000BF2C
:10255000BD4680BC704700BF842A002080B582B091
:1025600000AF786000F052F8064B1B68012BF9D9D8
:10257000054B4FF080521A60BFF34F8FBFF36F8F40
:10258000F0E700BF8829002004ED00E080B582B0AC
:1025900000AF00237B600CE07A6813469B00134475
:1025A0009B00124A13441846FEF764F87B68013317
:1025B0007B607B68052BEFD90D48FEF75BF80D4873
:1025C000FEF758F80C48FEF755F80C48FEF752F89D
:1025D0000B48FEF74FF80B4B054A1A600A4B054AA9
:1025E0001A6000BF0837BD4680BD00BF88290020A3
:1025F000002A0020142A0020302A0020442A00202B
:102600005C2A0020282A00202C2A002080B582B0D5
:1026100000AF19E0FEF7D8FD104BDB68DB687B608C
:102620007B6804331846FEF788F80D4B1B68013BA6
:102630000B4A13600B4B1B68013B0A4A1360FEF701
:10264000DDFD786800F010F8064B1B68002BE1D127
:1026500000BF00BF0837BD4680BD00BF442A002030
:10266000702A0020582A002080B582B000AF786020
:102670007B681B6B1846FDF789FF7868FDF786FFBE
:1026800000BF0837BD4680BD80B400AF094B1B6852
:102690001B68002B04D1084B4FF0FF321A6005E095
:1026A000044B1B68DB681B68034A136000BFBD4610
:1026B00080BC7047282A0020902A002080B586B070
:1026C00000AF78607B683B6100237B617B68002BF7
:1026D0006ED03B691B6D5A1E3B691A653B69DA6A0D
:1026E0003B69DB6C9A4263D03B691B6D002B5FD169
:1026F0003B6904331846FEF720F80346002B0AD145
:102700003B69DB6A012202FA03F3DA432B4B1B68B5
:1027100013402A4A13603B69DA6C3B69DA623B6911
:10272000DB6AC3F106023B699A613B69DB6A0122FD
:102730009A40224B1B681343204A13603B69DA6AB4
:102740001F4913469B0013449B000B4404331B6832
:10275000FB603B69FA689A60FB689A683B69DA60DB
:10276000FB689B683A6904325A603B691A1DFB6832
:102770009A603B69DA6A13469B0013449B00104A37
:102780001A443B695A613B69DA6A0D4913469B005A
:1027900013449B000B441B683A69D26A591C0848D1
:1027A00013469B0013449B000344196001237B6183
:1027B0007B6918461837BD4680BD00BF782A0020C7
:1027C0008829002080B588B000AF78603960374B29
:1027D0001B68FB61364B1B68BB61364B1B687B611A
:1027E000354B1B6804331846FDF7A7FF0346002B43
:1027F0000BD1314B1B68DB6A012202FA03F3DA4387
:102800002E4B1B6813402D4A13607B68B3F1FF3FCA
:1028100024D13B68002B21D0294B5B683B61264BC0
:102820001B683A699A60244B1B683A699268DA60BF
:10283000214B1A683B699B6804325A601E4B1B6827
:102840001A1D3B699A601C4B1B681D4A5A611C4B40
:102850001B6801331A4A136000BF22E0FA697B68E3
:102860001344FB60144B1B68FA685A60FA68FB69F2
:102870009A4207D2104B1B68043319467869FDF75A
:1028800024FF0EE00C4B1B6804331946B869FDF7B2
:102890001CFF0C4B1B68FA689A4202D2094AFB687B
:1028A000136000BF2037BD4680BD00BF742A0020E2
:1028B000282A00202C2A002084290020782A0020A1
:1028C0005C2A0020902A002080B584B000AFF86018
:1028D000B9607A60FB687A681A600C4ABB6813605A
:1028E0000B4B1B78002B05D1084B1B681946F86869
:1028F00000F010F8064B1B780133DAB2044B1A7063
:10290000FB6818461037BD4680BD00BFA02A0020D6
:102910009C2A002080B584B000AF7860396007F150
:102920000C031846FDF71CFC144BDB69134A43F0FB
:102930000203D361124B00221A60114B47229A62A4
:102940000F4A3B68D3620E4B9B690D4A43F0680304
:1029500093610B4BDB690A4A43F06803D361084B70
:1029600040F201121A62064B1B68054A43F001034C
:10297000136000BF1037BD4680BD00BF001002408D
:102980000004004080B485B000AF786039607B6897
:102990003A681A607B681B68642B02D97B686422E2
:1029A0001A607B681B680A4A126802FB03F3094A33
:1029B000A2FB03235B09FB60074AFB685363064ADB
:1029C000FB68D36300BF1437BD4680BC704700BFAF
:1029D000A02A00201F85EB510004004080B485B080
:1029E00000AF786039607B683A681A607B681B6862
:1029F000642B02D97B6864221A607B681B68084AD2
:102A0000126802FB03F3074AA2FB03235B09FB6086
:102A1000054AFB68536300BF1437BD4680BC70474E
:102A2000A02A00201F85EB510004004080B485B02F
:102A300000AF786039607B683A681A607B681B6811
:102A4000642B02D97B6864221A607B681B68084A81
:102A5000126802FB03F3074AA2FB03235B09FB6036
:102A6000054AFB68D36300BF1437BD4680BC70477E
:102A7000A02A00201F85EB510004004080B483B0E1
:102A800000AF78607B6818460C37BD4680BC704745
:102A900080B582B000AF786039607B68114A93429C
:102AA00004D10121786800F025F815E07B680E4A12
:102AB000934204D10221786800F01CF80CE07B6896
:102AC0000A4A934204D10321786800F013F803E026
:102AD0000749786800F0B6F87B6818460837BD46A5
:102AE00080BD00BF00380140004400400048004065
:102AF000A42A002080B483B000AF786039603B68BE
:102B0000032B47D03B68032B60DC3B68012B03D0D1
:102B10003B68022B22D059E02F4B9B692E4A43F48D
:102B2000804343F0050393612C4B5B682B4A43F0D1
:102B3000B0035360294B5B68284A43F480635360B9
:102B40007B6841F64C529A607B680C22DA607B68A5
:102B5000DB6843F400527B68DA6037E01E4B4FF4C9
:102B60000032DA611C4B9B691B4A43F005039361F9
:102B70001A4B4FF496421A607B6841F64C529A60A9
:102B80007B680C22DA607B68DB6843F400527B6868
:102B9000DA601BE0104B4FF48022DA610E4B9B6928
:102BA0000D4A43F0090393610D4B4FF496425A606E
:102BB0007B6841F64C529A607B680C22DA607B6835
:102BC000DB6843F400527B68DA6000BF00BF0C375B
:102BD000BD4680BC704700BF0010024000080140A5
:102BE000000C014080B485B000AF786000BF7B6806
:102BF0001B6803F02003002BF9D0044B5B68FB73C8
:102C0000FB7B18461437BD4680BC70470038014036
:102C100080B485B000AF78600B46FB70084AFB7843
:102C20005360FB7300BF7B681B6803F08003002BBD
:102C3000F9D000BF00BF1437BD4680BC704700BF4D
:102C40000038014080B584B000AF7860396000235F
:102C5000FB600AE0FB681946386800F0CFF80346CD
:102C60001B7819467868FFF7D3FFFB68002BF1D17A
:102C700000BF00BF1037BD4680BD80B483B000AF39
:102C8000786039603B6818460C37BD4680BC704799
:102C900080B584B000AF786039607B68012B15D1B6
:102CA0003B684FF6FF72934210D107F10C031846B0
:102CB00000F055F807F10C031A460C490C4800F0D7
:102CC000BBF807F10C03184600F04AF87B68002BAC
:102CD00007D13B684FF6FF72934202D1044800F0DF
:102CE00087F800BF1037BD4680BD00BF5C320008CA
:102CF000A42A002080B500AF4FF6FF710120FFF736
:102D0000C7FF80BD80B500AF4FF6FF710020FFF711
:102D1000BFFF80BDFEF776FE0B480C490C4A00232E
:102D200002E0D458C4500433C4188C42F9D3094A81
:102D3000094C002301E013600432A242FBD300F0EF
:102D4000DFF9FDF7E1FD704700000020680000207A
:102D5000F432000868000020082C0020FEE77047CD
:102D600070470AB100F0F2B9704750F8083B1B1ADF
:102D7000584258417047000008B50B68B3F1804FC6
:102D800002D30D4800F089F893420BD9B3EB420F00
:102D90004FEA420006D2B0F1804F2ABF6FF04043A5
:102DA00008600B600868013001D500F070F8BDE8DC
:102DB000084000F05BB800BF8832000810B5044638
:102DC000FFF7D3FF20B92068BDE8104000F04CB8F1
:102DD00010BD012A10B403D10A7810BC02707047EC
:102DE00010BCFFF7BEBF08B5521AFFF7F2FF08BDCF
:102DF00010B50446FFF7E2FF204610BD0068084406
:102E0000704773B5531A0F2B04460D4616460193AF
:102E100006D9002201A9FFF7AFFF019B2060A36044
:102E2000324629462068FFF7DEFF0021019B226819
:102E30006360D15402B070BD38B500F10803044698
:102E40000D46036011B9074800F024F80846FDF765
:102E50007FF94FF000032A1829462046FFF7D1FFDB
:102E6000204638BDA032000800F032B8012838BF33
:102E7000012010B50446204600F022F800B110BD34
:102E800000F00EF808B900F013F88047F3E708B532
:102E900000F00EF808B500F00BF808B500F008F8DF
:102EA000024B1868BFF35B8F704700BFBC2A00203D
:102EB000062008B500F0F2F80120FEF762FD0000E0
:102EC000024B0146186800F02DB800BF1800002022
:102ED000024B0146186800F047B900BF18000020F7
:102EE00070B50F4E0C463168054611B900F0F2F886
:102EF00030602146284600F0EDF8431C03D14FF026
:102F0000FF34204670BDC41C24F00304A042F8D056
:102F1000211A284600F0DEF80130F2D1EFE700BFB9
:102F2000C02A00202DE9F843CD1C25F00305083503
:102F30000C2D38BF0C25002D064601DBA94204D913
:102F40000C2333600020BDE8F883DFF8D48000F064
:102F500069F8D8F800301C4644BB29463046FFF7D4
:102F6000BFFF431C044658D1D8F800402746002F25
:102F700043D1002C4BD023683946304604EB03097B
:102F800000F0A8F8814542D1216830466D1A2946E3
:102F9000FFF7A6FF01303AD023682B442360D8F80E
:102FA00000305A6862BBC8F800700FE02268521BFC
:102FB00020D40B2A17D96119A342256018BF596084
:102FC000636808BFC8F8001062514B60304600F0DB
:102FD0002FF804F10B00231D20F00700C21A1CBFBC
:102FE0001B1AA350AFE76268A3420CBFC8F80020C9
:102FF0005A60EBE723466468AEE73C467F68B6E775
:103000001A465B68A342FBD100235360DEE70C2322
:103010003046336000F00CF894E70560D6E700BF57
:10302000C42A0020014800F08FB800BF042C002003
:10303000014800F08AB800BF042C00200346024477
:10304000934200D1704703F8011BF9E71F2938B5F7
:1030500005460C4604D9162303604FF0FF3038BDF7
:10306000C26B12B152F821304BB9284600F030F84B
:10307000224601462846BDE8384000F017B8012B2B
:103080000AD0591C03D1162303600120E7E7002171
:10309000204642F8241098470020E0E7024B014602
:1030A0001868FFF7D3BF00BF1800002038B5002311
:1030B000064D0446084611462B60FEF752FC431CA1
:1030C00002D12B6803B1236038BD00BF002C002063
:1030D000FEF740BC38B50023054D044608462B607A
:1030E000FEF75AFC431C02D12B6803B1236038BDA4
:1030F000002C0020014B1868704700BF180000200A
:1031000070B500260C4D0D4C641BA410A64209D1CD
:1031100000F072F800260A4D0A4C641BA410A64267
:1031200005D170BD55F8043B98470136EEE755F8D8
:10313000043B98470136F2E7DC320008DC32000835
:10314000DC320008E8320008704770470A449142B8
:1031500000F1FF3300D1704710B511F8014B9142D7
:1031600003F8014FF9D110BD38B50546002940D00C
:1031700051F8043C0C1F002BB8BFE418FFF752FFB6
:103180001C4A136833B9636014602846BDE83840B0
:10319000FFF74EBFA34208D9206821188B4201BF18
:1031A00019685B6809182160EDE71A465B680BB186
:1031B000A342FAD911685018A0420BD120680144EB
:1031C000501883421160E0D118685B6808441060B1
:1031D0005360DAE702D90C232B60D6E72068211868
:1031E0008B4201BF19685B680918216063605460F5
:1031F000CBE738BDC42A0020F8B500BFF8BC08BC36
:103200009E467047F8B500BFF8BC08BC9E467047A4
:10321000756172745F636F6D000000007561727498
:103220005F726563000000004E4F205541525420EC
:103230007769746820746869732061646472657367
:103240007320697320417661696C61626C6521212C
:10325000200D0A0049444C45000000004E4F205507
:1032600041525420776974682074686973206164DE
:10327000647265737320697320417661696C616261
:103280006C652121200D0A0062617369635F7374AC
:1032900072696E673A3A5F4D5F637265617465008B
:1032A00062617369635F737472696E673A20636FFA
:1032B0006E737472756374696F6E2066726F6D20C1
:1032C0006E756C6C206973206E6F742076616C690A
:0432D0006400000096
:0832D4007CCEFF7F0100000029
:0C32DC00350100086D0B0008F52C0008FF
:0C32E800110100087D0B0008052D0008F6
:1032F400F8270000204E0000280000001E000000F7
:10330400AAAAAAAA050000001C00002000000000D0
:10331400C82A0020302B0020982B00200000000039
:103324000000000000000000000000000000000099
:103334000000000000000000000000000000000089
:103344000000000000000000000000000000000079
:08335400000000000000000071
:0400000508002D15AD
:00000001FF
