:020000040800F2
:10000000005000209D270008E5270008E52700088C
:10001000E5270008E5270008E527000800000000A4
:10002000000000000000000000000000710D00084A
:10003000E527000800000000810E0008C90E000836
:10004000E5270008E5270008E5270008E527000860
:10005000E5270008E5270008E5270008E527000850
:10006000E5270008E5270008E5270008E527000840
:10007000E5270008E5270008E5270008E527000830
:10008000E5270008E5270008E5270008E527000820
:10009000E5270008E5270008E5270008E527000810
:1000A000E5270008E5270008E5270008E527000800
:1000B000E5270008E5270008E5270008E5270008F0
:1000C000E5270008E5270008E5270008E5270008E0
:1000D000E5270008E5270008E5270008E5270008D0
:1000E000E5270008E5270008E527000800000000D4
:1000F0000000000000000000000000000000000000
:0C01000000000000000000005FF808F1A3
:1001100010B5054C237833B9044B13B10448AFF341
:1001200000800123237010BD60000020000000004B
:10013000802C000808B5034B1BB103490348AFF3FB
:10014000008008BD0000000064000020802C000832
:10015000034613F8012B002AFBD1181A0138704707
:1001600080B483B000AF7860054B00229A61044BE5
:100170000022DA617B6818460C37BD4680BC7047A8
:100180000010024080B483B000AF7860054B9B69DB
:10019000044A43F00403936100BF0C37BD4680BCA2
:1001A000704700BF0010024080B483B000AF786099
:1001B000054B9B69044A43F00803936100BF0C3769
:1001C000BD4680BC704700BF0010024080B584B0BF
:1001D00000AFF860B9607A60FB68BA681A60FB68C3
:1001E0007A685A60FB681B68184600F025FCFB68BB
:1001F0005B68184600F020FCFB6818461037BD46C7
:1002000080BD80B582B000AF78607B681B681846FF
:1002100000F0E0FB7B685B68184600F0F4FB00BF71
:100220000837BD4680BD80B582B000AF78607B687E
:100230005B68184600F0CEFB7B681B68184600F030
:10024000E2FB00BF0837BD4680BD80B582B000AF7D
:1002500078607B681B68184600F0EEFB7B685B6883
:10026000184600F0D0FB00BF0837BD4680BD80B502
:1002700082B000AF78607B681B68184600F0AAFB6C
:100280007B685B68184600F0D7FB00BF0837BD46A7
:1002900080BD80B582B000AF78607B681B6818466F
:1002A00000F0CAFB7B685B68184600F0C5FB00BF26
:1002B0000837BD4680BD000080B58AB000AF7860C9
:1002C0000023FB617B68002B22D00823DB437A6884
:1002D0009A421BD808227B6813447B607B6803F03A
:1002E0000703002B14D07B6803F00703C3F1080356
:1002F0007B617B69DB437A689A4204D87A687B69C0
:1003000013447B6004E000237B6001E000237B60FA
:1003100001F0ACFB3B4B1B68002B04D100F0C6F88E
:10032000384B01221A607B68002B63DB7B68002B53
:1003300060D0354B1B687A689A425BD8334B3B627E
:10034000324B1B687B6204E07B6A3B627B6A1B6802
:100350007B627B6A5B687A689A4203D97B6A1B6816
:10036000002BF1D17B6A2A4A934243D03B6A1B6837
:1003700008221344FB617B6A1A683B6A1A607B6A35
:100380005A687B68D21A08235B009A4222D97A6A9B
:100390007B6813443B617B6A5A687B68D21A3B696D
:1003A0005A607B6A7A685A603B695B68FB60174BEE
:1003B000BB6102E0BB691B68BB61BB691B685B6812
:1003C000FA689A42F6D8BB691A683B691A60BB6939
:1003D0003A691A600C4B1A687B6A5B68D31A0A4A3E
:1003E00013607B6A5B6843F000427B6A5A607B6AF9
:1003F00000221A6001F048FBFB6918462837BD4609
:1004000080BD00BF8C280020000000207C28002038
:100410008428002080B586B000AF78607B683B619F
:100420007B68002B39D008235B423A6913443B6157
:100430003B69FB60FB685B68DB0F03F00103DBB229
:10044000002B2AD0FB681B68002B26D1FB685B6859
:1004500023F00042FB685A6001F008FBFB685B6810
:10046000BB60104B7B6102E07B691B687B617B6931
:100470001B685B68BA689A42F6D87B691A68FB68A1
:100480001A607B69FA681A60FB685A68064B1B6839
:100490001344054A136001F0F7FA00BF1837BD4650
:1004A00080BD00BF7C2800200000002080B483B005
:1004B00000AF0F4B23F007037B600E4A7B6813608D
:1004C0000C4B00225A600C4B42F2F8725A600A4BF5
:1004D00000221A607B683B603B6842F2F8725A6007
:1004E0003B68054A1A6000BF0C37BD4680BC7047A8
:1004F000830000207C2800208428002080B483B062
:1005000000AF78607B6803F108027B685A607B6803
:100510004FF0FF329A607B6803F108027B68DA6073
:100520007B6803F108027B681A617B6800221A600D
:1005300000BF0C37BD4680BC704780B483B000AFAD
:1005400078607B6800221A6100BF0C37BD4680BC12
:10055000704780B485B000AF786039603B681B6835
:10056000BB60BB68B3F1FF3F03D17B681B69FB60D5
:100570000CE07B680833FB6002E0FB685B68FB60B3
:10058000FB685B681B68BA689A42F6D2FB685A68D7
:100590003B685A603B685B683A689A603B68FA68F7
:1005A0009A60FB683A685A603B687A681A617B68AF
:1005B0001B685A1C7B681A6000BF1437BD4680BC9C
:1005C000704780B485B000AF78607B681B69FB60C2
:1005D0007B685B687A6892689A607B689B687A68D7
:1005E00052685A60FB685B687A689A4203D17B68FC
:1005F0009A68FB685A607B6800221A61FB681B6876
:100600005A1EFB681A60FB681B6818461437BD4603
:1006100080BC704780B584B000AF78600D4B1B681C
:100620000121184601F0AAFF0A4B1B68184602F088
:100630001DF80346FB73084B186807F10F010023F0
:100640004FF0FF3200F052FD642001F071F900BF5D
:10065000EAE700BFAC280020A828002080B584B0BD
:1006600000AF78600023FB733A4B1B6807F10F0162
:100670004FF0FF32184600F0E3FDFB7B772B0FD1E4
:10068000354800F0F5FA354800F008FB344800F032
:1006900005FB344800F002FB3348FFF7B2FDE3E707
:1006A000FB7B732B0CD12E4800F0E2FA2B4800F0B4
:1006B000F5FA294800F0F2FA2B48FFF7B4FDD3E72A
:1006C000FB7B642B0FD1254800F0D2FA244800F0C0
:1006D000E5FA214800F0E2FA224800F0DFFA224869
:1006E000FFF7B3FDC0E7FB7B612B0FD11B4800F088
:1006F000BFFA194800F0D2FA194800F0CFFA1948A9
:1007000000F0CCFA1848FFF7B2FDADE7FB7B702B89
:100710000FD1134800F0ACFA104800F0A9FA0E48C7
:1007200000F0A6FA0F4800F0B9FA0F48FFF7B1FD44
:100730009AE70A4800F09CFA094800F099FA06483E
:1007400000F0ACFA074800F0A9FA0748FFF7A1FD4E
:100750008AE700BFA82800201429002008290020CB
:10076000202900202C2900200029002080B584B0F9
:1007700002AF3B1D1846FFF7F3FC3B1D1846FFF781
:1007800013FD3B1D1846FFF7FDFC002201210A2046
:1007900000F04AFC0346104A13600F4B1B68002B05
:1007A00018D0002301930323009300234FF4C87251
:1007B0000A490B4800F090FF0023019303230093A4
:1007C00000234FF4C8720749074800F085FF01F085
:1007D0001FF900BF00BFFDE7A8280020982C0008E3
:1007E00015060008A42C00085D06000880B582B03C
:1007F00000AF78607B681833184600F066FA7B68B3
:100800000C33184600F061FA7B68184600F05DFA78
:100810007B6818460837BD4680BD000090B585B09E
:1008200000AF786039607B68012B6CD13B684FF674
:10083000FF72934267D107F10C03184601F0D3FF12
:1008400007F10C031A464049404802F039F807F115
:100850000C03184601F0C8FF3D491C2001F051FF70
:1008600004463B49204601F057FE3A4B1C600323E7
:1008700005223949394800F0F9F8394B1968032342
:100880000122384800F0F2F80323062232493648A4
:1008900000F0ECF8032304222F49344800F0E6F876
:1008A000032300222C49324800F0E0F82C4B196851
:1008B000032300222F4800F0D9F828492E4800F0E1
:1008C00079F82A492D4800F075F82C4A2A492C4815
:1008D000FFF77CFC032301221F492A4800F0C6F8D9
:1008E000032302221C49284800F0C0F803230322F6
:1008F0001949264800F0BAF8194B19680323092250
:10090000234800F0B3F87B68002B19D13B684FF601
:10091000FF72934214D11E4800F0D7F91B4800F033
:10092000D4F9194800F0D1F9164800F0CEF90F4873
:10093000FFF75CFF0948FFF759FF044801F09CFFEF
:1009400000BF1437BD4690BDB02C00089028002091
:1009500000380140AC28002000080140B0280020E9
:1009600004000020BC280020C8280020D428002033
:10097000E0280020EC280020F8280020FC28002097
:100980000029002008290020142900202029002007
:100990002C29002080B500AF4FF6FF710120FFF732
:1009A0003DFF80BD80B500AF4FF6FF710020FFF71F
:1009B00035FF80BD80B582B000AF786039607B685C
:1009C0003A681A60786800F037F87B68184608378C
:1009D000BD4680BD80B582B000AF78607B681B6883
:1009E000184600F045F97B681B680C33184600F088
:1009F00055F97B681B681833184600F039F900BFB9
:100A00000837BD4680BD80B582B000AF78607B6896
:100A10001B68184600F042F97B681B680C331846C7
:100A200000F026F97B681B681833184600F020F99F
:100A300000BF0837BD4680BD80B582B000AF78608A
:100A40007B681B68184600F029F97B681B680C332B
:100A5000184600F023F97B681B681833184600F02D
:100A60001DF900BF0837BD4680BD000080B584B0C9
:100A700000AFF860B9603B601346FB71FB68BA6871
:100A80001A60FB68FA791A71FB683A689A60BB6869
:100A9000734A93426CD13B68032B32D1714B1B7864
:100AA000002B07D1FB681B6800221A60FB681B68DB
:100AB00000225A606B4B1B780133DAB2694B1A7013
:100AC000FB681B79072B0CD8FB681B681968FB684F
:100AD0001B799B0003229A40FB681B680A431A603B
:100AE000B5E0FB681B685968FB681B7903F180431C
:100AF000083B9B0003229A40FB681B680A435A602C
:100B0000A5E03B680B2B40F0A280564B1B78002BD6
:100B100007D1FB681B6800221A60FB681B68002273
:100B20005A60504B1B780133DAB24E4B1A70FB6897
:100B30001B79072B0CD8FB681B681968FB681B79AD
:100B40009B000B229A40FB681B680A431A607EE0F8
:100B5000FB681B685968FB681B7903F18043083BFD
:100B60009B000B229A40FB681B680A435A606EE0A8
:100B7000BB683D4A93426AD13B68032B32D13B4B61
:100B80001B78002B07D1FB681B6800221A60FB68EA
:100B90001B6800225A60354B1B780133DAB2334BA5
:100BA0001A70FB681B79072B0CD8FB681B68196847
:100BB000FB681B799B0003229A40FB681B680A4371
:100BC0001A6044E0FB681B685968FB681B7903F1F5
:100BD0008043083B9B0003229A40FB681B680A4342
:100BE0005A6034E03B680B2B31D1204B1B78002B33
:100BF00007D1FB681B6800221A60FB681B68002293
:100C00005A601A4B1B780133DAB2184B1A70FB6822
:100C10001B79072B0CD8FB681B681968FB681B79CC
:100C20009B000B229A40FB681B680A431A600EE087
:100C3000FB681B685968FB681B7903F18043083B1C
:100C40009B000B229A40FB681B680A435A60F868B5
:100C500000F024F8FB6818461037BD4680BD00BF81
:100C60000008014038290020000C014039290020EB
:100C700080B483B000AF78607B681B68DA687B68FB
:100C80001B79194601238B4019467B681B680A4370
:100C9000DA6000BF0C37BD4680BC704780B483B0BB
:100CA00000AF78607B681B68DA687B681B7919463F
:100CB00001238B40DB4319467B681B680A40DA60DE
:100CC00000BF0C37BD4680BC704780B582B000AF16
:100CD00078607868FFF7E2FF7B6818460837BD4602
:100CE00080BD000080B485B000AFF860B9607A6064
:100CF000FB68043BFB60FB684FF080721A60FB6886
:100D0000043BFB60BB6823F00102FB681A60FB68D0
:100D1000043BFB60084AFB681A60FB68143BFB60FD
:100D20007A68FB681A60FB68203BFB60FB6818462A
:100D30001437BD4680BC70473D0D000880B483B0B9
:100D400000AF00233B604FF0BF0383F31188BFF374
:100D50006F8FBFF34F8F7B6000BF00BF3B68002BDE
:100D6000FCD000BF00BF0C37BD4680BC7047000000
:100D7000074B19680868B0E8F00F80F30988BFF3E3
:100D80006F8F4FF0000080F311884EF00D0E70470A
:100D90004029002000BF00BF06480068006880F3BB
:100DA000088862B661B6BFF34F8FBFF36F8F00DF65
:100DB00000BF000008ED00E000BF00BF80B582B0BA
:100DC00000AF114B1B687B60104B1B680F4A43F44C
:100DD0007F0313600D4B1B680C4A43F07F43136085
:100DE0000B4B00221A6000F091F80A4B00221A60A7
:100DF000FFF7D2FF01F048F8FFF7A0FF00231846E5
:100E00000837BD4680BD00BF08ED00E020ED00E0E2
:100E10001CED00E00800002080B483B000AF4FF06C
:100E2000BF0383F31188BFF36F8FBFF34F8F7B60D6
:100E300000BF054B1B680133034A136000BF0C372A
:100E4000BD4680BC704700BF0800002080B483B05E
:100E500000AF0A4B1B68013B084A1360074B1B6835
:100E6000002B05D100237B607B6883F3118800BFD2
:100E700000BF0C37BD4680BC704700BF0800002093
:100E8000EFF30980BFF36F8F0D4B1A6820E9F00F65
:100E900010602DE908404FF0BF0080F3118800F08A
:100EA000F3FF4FF0000080F31188BDE80840196897
:100EB0000868B0E8F00F80F30988BFF36F8F7047C0
:100EC0004029002000BF00BF80B582B000AF4FF0C6
:100ED000BF0383F31188BFF36F8FBFF34F8F7B6026
:100EE00000BF00F0C9FE0346002B03D0064B4FF0B5
:100EF00080521A6000233B603B6883F3118800BF77
:100F000000BF0837BD4680BD04ED00E080B400AFEF
:100F1000084B00221A60084B00221A60074B41F66A
:100F20003F721A60034B07221A6000BFBD4680BCA7
:100F3000704700BF10E000E018E000E014E000E0BF
:100F400080B584B000AF786039600123FB607B68B6
:100F5000BB60BB68002B5DD0BB68DB6B002B59D03E
:100F6000BB681A6CBB68DB6B0021A3FB0223002B60
:100F700000D001210B46002B4CD1FFF74DFFBB6881
:100F80001A68BB68DB6BB968096C01FB03F31A4490
:100F9000BB689A60BB6800229A63BB681A68BB682A
:100FA0005A60BB681A68BB68DB6B013BB968096CA7
:100FB00001FB03F31A44BB68DA60BB68FF2283F8C5
:100FC0004420BB68FF2283F845203B68002B14D1E6
:100FD000BB681B69002B1AD0BB681033184600F0A1
:100FE000AFFF0346002B12D00E4B4FF080521A6019
:100FF000BFF34F8FBFF36F8F09E0BB681033184604
:10100000FFF77CFABB6824331846FFF777FAFFF73F
:101010001DFF01E00023FB60FB6818461037BD464A
:1010200080BD00BF04ED00E080B58AB002AFF8607B
:10103000B9601346FB710023FB61FB68002B2DD0C8
:101040000021BA68FB68A3FB0223002B00D001211A
:101050000B46002B22D1FB68BA6802FB03F313F1A5
:10106000510F1BD8FB68BA6802FB03F3BB61BB6975
:1010700050331846FFF720F9F861FB69002B0DD0BB
:10108000FB697B617B6950337B61FA79FB69009373
:1010900013467A69B968F86800F005F8FB691846E4
:1010A0002037BD4680BD80B584B000AFF860B96020
:1010B0007A60FB70BB68002B03D1BB69BA691A6008
:1010C00002E0BB697A681A60BB69FA68DA63BB69D7
:1010D000BA681A640121B869FFF732FFBB69FA7870
:1010E00083F84C2000BF1037BD4680BD80B58AB064
:1010F00000AFF860B9607A603B6000237B62FB68F8
:101100003B62FFF789FE3B6A9A6B3B6ADB6B9A4254
:1011100002D33B68022B29D13A68B968386A00F0DB
:1011200031F9F8613B6A5B6A002B10D03B6A2433CB
:10113000184600F005FF0346002B13D03F4B4FF03D
:1011400080521A60BFF34F8FBFF36F8F0AE0FB69C5
:10115000002B07D0394B4FF080521A60BFF34F8FEE
:10116000BFF36F8FFFF772FE012363E07B68002BF4
:1011700003D1FFF76BFE00235CE07B6A002B06D1F6
:1011800007F11403184600F0A5FF01237B62FFF767
:101190005DFE00F06BFCFFF73FFE3B6A93F84430C6
:1011A0005BB2B3F1FF3F03D13B6A002283F84420D6
:1011B0003B6A93F845305BB2B3F1FF3F03D13B6A22
:1011C000002283F84520FFF741FE3A1D07F1140382
:1011D0001146184600F094FF0346002B24D1386ACC
:1011E00000F0C8F90346002B18D03B6A10337A6828
:1011F0001146184600F08EFE386A00F053F900F0F0
:1012000043FC0346002B7FF47CAF0C4B4FF0805225
:101210001A60BFF34F8FBFF36F8F72E7386A00F029
:1012200041F900F031FC6CE7386A00F03BF900F05E
:101230002BFC002318462837BD4680BD04ED00E096
:1012400080B58AB000AFF860B9607A6000237B6235
:10125000FB683B62FFF7E0FD3B6A9B6BFB61FB6950
:10126000002B1FD0B968386A00F0F6F8FB695A1EE7
:101270003B6A9A633B6A1B69002B0FD03B6A1033B1
:10128000184600F05DFE0346002B07D03C4B4FF0A4
:1012900080521A60BFF34F8FBFF36F8FFFF7D6FDF9
:1012A000012369E07B68002B03D1FFF7CFFD00230A
:1012B00062E07B6A002B06D107F11403184600F0A8
:1012C00009FF01237B62FFF7C1FD00F0CFFBFFF7B1
:1012D000A3FD3B6A93F844305BB2B3F1FF3F03D107
:1012E0003B6A002283F844203B6A93F845305BB2A6
:1012F000B3F1FF3F03D13B6A002283F84520FFF79B
:10130000A5FD3A1D07F114031146184600F0F8FE3A
:101310000346002B23D1386A00F016F90346002B50
:1013200017D03B6A24337A681146184600F0F2FD64
:10133000386A00F0B7F800F0A7FB0346002B89D10C
:101340000F4B4FF080521A60BFF34F8FBFF36F8F78
:1013500080E7386A00F0A6F800F096FB7AE7386A72
:1013600000F0A0F800F090FB386A00F0EDF80346BA
:10137000002B3FF46FAF002318462837BD4680BDD1
:1013800004ED00E080B586B000AFF860B9607A6027
:1013900000237B61FB689B6B3B61FB681B6C002B34
:1013A0000DD1FB681B68002B4DD1FB689B6818466C
:1013B00000F0ACFF7861FB6800229A6043E07B6834
:1013C000002B19D1FB685868FB681B6C1A46B9687A
:1013D00001F000FCFB685A68FB681B6C1A44FB6850
:1013E0005A60FB685A68FB689B689A422BD3FB687B
:1013F0001A68FB685A6026E0FB68D868FB681B6CBB
:101400001A46B96801F0E6FBFB68DA68FB681B6CFA
:101410005B421A44FB68DA60FB68DA68FB681B68A9
:101420009A4207D2FB689A68FB681B6C5B421A44BD
:10143000FB68DA607B68022B05D13B69002B02D088
:101440003B69013B3B613B695A1CFB689A637B69C2
:1014500018461837BD4680BD80B582B000AF7860B1
:1014600039607B681B6C002B18D07B68DA687B685E
:101470001B6C1A447B68DA607B68DA687B689B685F
:101480009A4203D37B681A687B68DA607B68D96804
:101490007B681B6C1A46386801F09CFB00BF08375C
:1014A000BD4680BD80B584B000AF7860FFF7B4FC66
:1014B0007B6893F84530FB7311E07B685B6A002B17
:1014C00012D07B682433184600F03AFD0346002B07
:1014D00001D000F05FFEFB7B013BDBB2FB7397F9B1
:1014E0000F30002BE9DC00E000BF7B68FF2283F8AF
:1014F0004520FFF7ABFCFFF78FFC7B6893F8443087
:10150000BB7311E07B681B69002B12D07B68103322
:10151000184600F015FD0346002B01D000F03AFEFE
:10152000BB7B013BDBB2BB7397F90E30002BE9DCD0
:1015300000E000BF7B68FF2283F84420FFF786FCB1
:1015400000BF1037BD4680BD80B584B000AF786065
:10155000FFF762FC7B689B6B002B02D10123FB60D1
:1015600001E00023FB60FFF771FCFB6818461037B1
:10157000BD4680BD80B584B000AF7860FFF74CFCFD
:101580007B689A6B7B68DB6B9A4202D10123FB601C
:1015900001E00023FB60FFF759FCFB681846103799
:1015A000BD4680BD80B400AF01231846BD4680BC57
:1015B000704780B582B000AF7860396001F0DEFA24
:1015C000034616221A604FF0FF3318460837BD460F
:1015D00080BD80B582B000AF78604FF0FF31786891
:1015E000FFF7E7FF00BFFDE780B586B000AF78608A
:1015F000144A154BD31A7B617B693B61134B1B6803
:10160000002B02D1114B124A1A60104B1A687B68EA
:1016100013443A699A4207D201F0B0FA03460C2209
:101620001A604FF0FF3309E0084B1B68FB60074B63
:101630001A687B681344054A1360FB68184618371C
:10164000BD4680BD00500020000400003C29002061
:10165000C02B002080B400AF00BFBD4680BC7047E7
:1016600080B58AB004AFF860B9607A603B607B688F
:101670009B001846FEF720FE38613B69002B13D013
:101680005C20FEF719FE78617B69002B08D05C2294
:101690000021786901F016FA7B693A691A6305E05E
:1016A0003869FEF7B7FE01E000237B617B69002B00
:1016B0000DD0002303937B6902937B6A01933B6AFD
:1016C00000933B687A68B968F86800F028F87B698D
:1016D00018461837BD4680BD80B588B002AFF860A7
:1016E000B9607A603B607B6A01933B6A00933B6818
:1016F0007A68B968F868FFF7B3FF38613B69002B77
:1017000005D0386900F07CF801237B6102E04FF0DE
:10171000FF337B617B6918461837BD4680BD80B5B5
:1017200086B000AFF860B9607A603B60BB6A186B46
:101730007B689B001A46A52101F0C4F9BB6A1A6BAD
:101740007B6803F18043013B9B0013443B613B6991
:1017500023F007033B61BB68002B1ED000237B6195
:1017600012E0BA687B6913441978BA6A7B6913443A
:1017700034330A461A70BA687B6913441B78002B0D
:1017800006D07B6901337B617B690F2BE9D900E0CF
:1017900000BFBB6A002283F843203B6A052B01D9B6
:1017A00005233B62BB6A3A6ADA62BB6A3A6ADA6468
:1017B000BB6A04331846FEF7C0FEBB6A18331846EE
:1017C000FEF7BBFEBB6ABA6A1A613B6AC3F1060246
:1017D000BB6A9A61BB6ABA6A5A623A68F968386940
:1017E000FFF780FA0246BB6A1A607B6A002B02D0C0
:1017F0007B6ABA6A1A6000BF1837BD4680BD000018
:1018000080B584B000AF7860FFF706FB414B1B68E2
:101810000133404A1360404B1B68002B09D13E4AFC
:101820007B6813603B4B1B68012B10D100F0D6FC8A
:101830000DE03A4B1B68002B09D1374B1B68DA6A65
:101840007B68DB6A9A4202D8334A7B681360344B68
:101850001B680133324A1360314B1A687B685A6443
:101860007B68DB6A01229A402E4B1B6813432D4A8A
:1018700013607B68DA6A2C4913469B0013449B0073
:101880000B4404331B68FB607B68FA689A60FB6852
:101890009A687B68DA60FB689B687A6804325A60F1
:1018A0007B681A1DFB689A607B68DA6A13469B00A6
:1018B00013449B001C4A1A447B685A617B68DA6AAD
:1018C000194913469B0013449B000B441B687A681C
:1018D000D26A591C144813469B0013449B000344CE
:1018E0001960FFF7B3FA0D4B1B68002B0ED00A4BA3
:1018F0001B68DA6A7B68DB6A9A4207D20B4B4FF0AF
:1019000080521A60BFF34F8FBFF36F8F00BF103745
:10191000BD4680BD2C2A002040290020382A002006
:10192000482A0020342A00204429002004ED00E049
:1019300080B584B000AF78600023FB607B68002B2B
:1019400008D000F093F80021786800F063FD00F003
:101950009BF8F860FB68002B07D1064B4FF08052D4
:101960001A60BFF34F8FBFF36F8F00BF1037BD46B4
:1019700080BD00BF04ED00E080B58AB002AF012356
:10198000FB6100233B6100237B6111E01D4A7B6901
:10199000134419783A467B6913440A461A703A464A
:1019A0007B6913441B78002B06D07B6901337B6174
:1019B0007B690F2BEADD00E000BF0023BB6116E06E
:1019C000114B3B61BB699B00104A1344394601939C
:1019D0000023009300234FF496723869FFF77CFED2
:1019E000F861FB69002B06D0BB690133BB61BB69A1
:1019F000002BE5DD00E000BFFB6918462037BD463F
:101A000080BD00BFDC2C0008AD210008502A00205A
:101A100080B582B000AFFFF7AFFF78607B68012B25
:101A200015D14FF0BF0383F31188BFF36F8FBFF35E
:101A30004F8F3B6000BF094B4FF0FF321A60084BDD
:101A400001221A60074B00221A60FFF7B7F9064B14
:101A50001B6800BF0837BD4680BD00BF4C2A002070
:101A6000382A0020302A00200C00002080B400AF6B
:101A7000044B1B680133034A136000BFBD4680BCA2
:101A8000704700BF542A002080B588B000AF002303
:101A9000FB610023BB61FFF7BFF900233B616D4B86
:101AA0001B68013B6B4A13606A4B1B68002B40F0BC
:101AB000CA80694B1B68002B00F0C5808EE0674B25
:101AC000DB68DB68FB61FB699B6AFB60FB69DB69C8
:101AD000FA69126A9A60FB691B6AFA69D2695A60EC
:101AE000FB685A68FB6918339A4203D1FB691A6A8A
:101AF000FB685A60FB6900229A62FB681B685A1EE9
:101B0000FB681A60FB695B69BB60FB699B68FA69EB
:101B1000D2689A60FB69DB68FA6992685A60BB68B0
:101B20005A68FB6904339A4203D1FB69DA68BB68DF
:101B30005A60FB6900225A61BB681B685A1EBB6869
:101B40001A60FB69DB6A01229A40454B1B6813430C
:101B5000434A1360FB69DA6A424913469B00134407
:101B60009B000B4404331B687B60FB697A689A60B6
:101B70007B689A68FB69DA607B689B68FA69043263
:101B80005A60FB691A1D7B689A60FB69DA6A134622
:101B90009B0013449B00334A1A44FB695A61FB695A
:101BA000DA6A304913469B0013449B000B441B68C0
:101BB000FA69D26A591C2B4813469B0013449B00B8
:101BC00003441960FB69DA6A274B1B68DB6A9A4297
:101BD00004D9264A3B69012142F823101F4B1B6898
:101BE000002B7FF46CAFFB69002B01D000F074FB7D
:101BF0001F4B1B687B617B69002B12D000F03CF807
:101C00000346002B04D0194A3B69012142F82310F6
:101C10007B69013B7B617B69002BEFD1144B002278
:101C20001A60124A3B6952F82330002B0BD0012373
:101C3000BB610D4B1B680F4B4FF080521A60BFF316
:101C40004F8FBFF36F8FFFF701F9BB69184620373D
:101C5000BD4680BD542A00202C2A0020EC290020FB
:101C6000342A00204429002040290020402A002056
:101C70003C2A002004ED00E080B588B000AF0023CE
:101C8000FB61764B1B68002B40F0DE80744B1B68B9
:101C90000133BB61724ABB691360BB69002B10D171
:101CA000704B1B687B61704B1B686E4A13606E4AF9
:101CB0007B6913606D4B1B6801336C4A136000F045
:101CC0000BFB6B4B1B68BA699A42C0F0A880654B4E
:101CD0001B681B68002B04D1654B4FF0FF321A6064
:101CE0009DE0604B1B68DB68DB683B613B695B68C0
:101CF000FB60BA69FB689A4203D25D4AFB681360D5
:101D00008DE03B695B69BB603B699B683A69D2685F
:101D10009A603B69DB683A6992685A60BB685A68A6
:101D20003B6904339A4203D13B69DA68BB685A6065
:101D30003B6900225A61BB681B685A1EBB681A6067
:101D40003B699B6A002B1ED03B699B6A7B603B69A9
:101D5000DB693A69126A9A603B691B6A3A69D2691F
:101D60005A607B685A683B6918339A4203D13B69D1
:101D70001A6A7B685A603B6900229A627B681B681A
:101D80005A1E7B681A603B69DB6A01229A40394B14
:101D90001B681343374A13603B69DA6A36491346B6
:101DA0009B0013449B000B4404331B683B603B695E
:101DB0003A689A603B689A683B69DA603B689B685E
:101DC0003A6904325A603B691A1D3B689A603B6964
:101DD000DA6A13469B0013449B00274A1A443B6966
:101DE0005A613B69DA6A244913469B0013449B00FD
:101DF0000B441B683A69D26A591C1F4813469B0062
:101E000013449B00034419603B69DA6A1B4B1B684F
:101E1000DB6A9A427FF65BAF0123FB6157E7174B02
:101E20001B68DA6A144913469B0013449B000B4459
:101E30001B68012B01D90123FB61114B1B68002B8F
:101E400007D00123FB6104E00E4B1B6801330D4AF0
:101E50001360FB6918462037BD4680BD542A002018
:101E6000302A0020E4290020E8290020442A00200C
:101E70004C2A0020342A0020442900204029002038
:101E8000402A00203C2A002080B485B000AF1C4BC3
:101E90001B68002B03D01B4B01221A602BE0194B4F
:101EA00000221A60184B1B687B607B68B3FA83F3CF
:101EB000FB70FB78C3F11F03FB60FA6813469B00BD
:101EC00013449B00114A1344BB60BB685B685A68AB
:101ED000BB685A60BB685A68BB6808339A4203D132
:101EE000BB68DA68BB685A60BB685B68DB68084A35
:101EF0001360074B1B6800BF1437BD4680BC70479A
:101F0000542A0020402A0020342A0020442900209E
:101F10004029002080B582B000AF78603960074B5F
:101F20001B68183319467868FEF713FB01213868DF
:101F300000F070FA00BF0837BD4680BD4029002080
:101F400080B489B000AF78607B68DB68DB68BB6118
:101F5000BB699B6A7B61BB69DB69BA69126A9A607B
:101F6000BB691B6ABA69D2695A607B695A68BB69E6
:101F700018339A4203D1BB691A6A7B695A60BB69FC
:101F800000229A627B691B685A1E7B691A604B4B60
:101F90001B68002B60D1BB695B69FB60BB699B68F8
:101FA000BA69D2689A60BB69DB68BA6992685A609C
:101FB000FB685A68BB6904339A4203D1BB69DA688B
:101FC000FB685A60BB6900225A61FB681B685A1E95
:101FD000FB681A60BB69DB6A01229A40384B1B68B8
:101FE0001343374A1360BB69DA6A364913469B00CC
:101FF00013449B000B4404331B68BB60BB69BA6885
:102000009A60BB689A68BB69DA60BB689B68BA690A
:1020100004325A60BB691A1DBB689A60BB69DA6AF0
:1020200013469B0013449B00264A1A44BB695A611D
:10203000BB69DA6A234913469B0013449B000B4497
:102040001B68BA69D26A591C1E4813469B00134488
:102050009B00034419601BE01B4B5B683B61BB6941
:102060003A69DA613B699A68BB691A623B699B68A5
:10207000BA6918325A60BB6903F118023B699A6069
:10208000BB69114A9A62104B1B6801330E4A1360F8
:10209000BB69DA6A0D4B1B68DB6A9A4205D90123DA
:1020A000FB610B4B01221A6001E00023FB61FB691D
:1020B00018462437BD4680BC704700BF542A002014
:1020C000342A002044290020EC2900204029002047
:1020D000402A002080B483B000AF7860064B1A68B5
:1020E0007B681A60054B1A687B685A6000BF0C3722
:1020F000BD4680BC704700BF442A0020302A002023
:1021000080B586B000AF78603960FEF785FE1F4B62
:102110001B683B617B685B683A69D31AFB603B686C
:102120001B68B3F1FF3F02D100237B6126E07B688F
:102130001A68174B1B689A420AD07B685B683A6939
:102140009A4205D301237B613B6800221A6015E0A7
:102150003B681B68FA689A420BD23B681A68FB68B6
:10216000D21A3B681A607868FFF7B4FF00237B61DE
:1021700004E03B6800221A6001237B61FEF766FEE3
:102180007B6918461837BD4680BD00BF302A002045
:10219000442A002080B400AF034B01221A6000BF24
:1021A000BD4680BC704700BF402A002080B582B089
:1021B00000AF786000F052F8064B1B68012BF9D98C
:1021C000054B4FF080521A60BFF34F8FBFF36F8FF4
:1021D000F0E700BF4429002004ED00E080B582B0A4
:1021E00000AF00237B600CE07A6813469B00134429
:1021F0009B00124A13441846FEF780F97B680133AE
:102200007B607B68052BEFD90D48FEF777F90D4809
:10221000FEF774F90C48FEF771F90C48FEF76EF9F9
:102220000B48FEF76BF90B4B054A1A600A4B054A3F
:102230001A6000BF0837BD4680BD00BF442900209A
:10224000BC290020D0290020EC290020002A0020F1
:10225000182A0020E4290020E829002080B582B057
:1022600000AF19E0FEF7D8FD104BDB68DB687B6040
:102270007B6804331846FEF7A4F90D4B1B68013B3D
:102280000B4A13600B4B1B68013B0A4A1360FEF7B5
:10229000DDFD786800F010F8064B1B68002BE1D1DB
:1022A00000BF00BF0837BD4680BD00BF002A002028
:1022B0002C2A0020142A002080B582B000AF78605C
:1022C0007B681B6B1846FEF7A5F87868FEF7A2F846
:1022D00000BF0837BD4680BD80B400AF094B1B6806
:1022E0001B68002B04D1084B4FF0FF321A6005E049
:1022F000044B1B68DB681B68034A136000BFBD46C4
:1023000080BC7047E42900204C2A002080B586B0AC
:1023100000AF78607B683B6100237B617B68002BAA
:102320006ED03B691B6D5A1E3B691A653B69DA6AC0
:102330003B69DB6C9A4263D03B691B6D002B5FD11C
:102340003B6904331846FEF73CF90346002B0AD1DB
:102350003B69DB6A012202FA03F3DA432B4B1B6869
:1023600013402A4A13603B69DA6C3B69DA623B69C5
:10237000DB6AC3F106023B699A613B69DB6A0122B1
:102380009A40224B1B681343204A13603B69DA6A68
:102390001F4913469B0013449B000B4404331B68E6
:1023A000FB603B69FA689A60FB689A683B69DA608F
:1023B000FB689B683A6904325A603B691A1DFB68E6
:1023C0009A603B69DA6A13469B0013449B00104AEB
:1023D0001A443B695A613B69DA6A0D4913469B000E
:1023E00013449B000B441B683A69D26A591C084885
:1023F00013469B0013449B000344196001237B6137
:102400007B6918461837BD4680BD00BF342A0020BE
:102410004429002080B588B000AF78603960374B20
:102420001B68FB61364B1B68BB61364B1B687B61CD
:10243000354B1B6804331846FEF7C3F80346002BE0
:102440000BD1314B1B68DB6A012202FA03F3DA433A
:102450002E4B1B6813402D4A13607B68B3F1FF3F7E
:1024600024D13B68002B21D0294B5B683B61264B74
:102470001B683A699A60244B1B683A699268DA6073
:10248000214B1A683B699B6804325A601E4B1B68DB
:102490001A1D3B699A601C4B1B681D4A5A611C4BF4
:1024A0001B6801331A4A136000BF22E0FA697B6897
:1024B0001344FB60144B1B68FA685A60FA68FB69A6
:1024C0009A4207D2104B1B68043319467869FEF70D
:1024D00040F80EE00C4B1B6804331946B869FEF750
:1024E00038F80C4B1B68FA689A4202D2094AFB681A
:1024F000136000BF2037BD4680BD00BF302A0020DA
:10250000E4290020E829002040290020342A002066
:10251000182A00204C2A002080B582B000AF7860D5
:1025200039607B68114A934204D10121786800F038
:1025300025F815E07B680E4A934204D102217868A1
:1025400000F01CF80CE07B680A4A934204D1032196
:10255000786800F013F803E00749786800F0B6F8EF
:102560007B6818460837BD4680BD00BF0038014073
:102570000044004000480040582A002080B483B046
:1025800000AF786039603B68032B47D03B68032B72
:1025900060DC3B68012B03D03B68022B22D059E062
:1025A0002F4B9B692E4A43F4804343F0050393610C
:1025B0002C4B5B682B4A43F0B0035360294B5B689C
:1025C000284A43F4806353607B6840F241329A604A
:1025D0007B680C22DA607B68DB6843F400527B681E
:1025E000DA6037E01E4B4FF40032DA611C4B9B6916
:1025F0001B4A43F0050393611A4B4FF496421A604D
:102600007B6840F241329A607B680C22DA607B681A
:10261000DB6843F400527B68DA601BE0104B4FF438
:102620008022DA610E4B9B690D4A43F009039361E6
:102630000D4B4FF496425A607B6840F241329A60EB
:102640007B680C22DA607B68DB6843F400527B68AD
:10265000DA6000BF00BF0C37BD4680BC704700BFCA
:102660000010024000080140000C014080B485B019
:1026700000AF786000BF7B681B6803F02003002B6D
:10268000F9D0044B5B68FB73FB7B18461437BD46DF
:1026900080BC70470038014080B485B000AF7860DE
:1026A0000B46FB70084AFB785360FB7300BF7B68E6
:1026B0001B6803F08003002BF9D000BF00BF143764
:1026C000BD4680BC704700BF0038014080B584B073
:1026D00000AF786039600023FB600AE0FB681946B0
:1026E000386800F0CFF803461B7819467868FFF782
:1026F000D3FFFB68002BF1D100BF00BF1037BD46F0
:1027000080BD80B483B000AF786039603B68184604
:102710000C37BD4680BC704780B584B000AF786090
:1027200039607B68012B15D13B684FF6FF729342ED
:1027300010D107F10C03184600F055F807F10C030F
:102740001A460C490C4800F0BBF807F10C03184678
:1027500000F04AF87B68002B07D13B684FF6FF7208
:10276000934202D1044800F087F800BF1037BD46FD
:1027700080BD00BFE42C0008582A002080B500AFBF
:102780004FF6FF710120FFF7C7FF80BD80B500AF96
:102790004FF6FF710020FFF7BFFF80BDFEF75AFF25
:1027A0000B480C490C4A002302E0D458C4500433AF
:1027B000C4188C42F9D3094A094C002301E0136084
:1027C0000432A242FBD300F0DFF9FDF7CFFF7047E0
:1027D00000000020600000207C2D00086000002028
:1027E000BC2B0020FEE7704770470AB100F0F2B939
:1027F000704750F8083B1B1A584258417047000078
:1028000008B50B68B3F1804F02D30D4800F089F88A
:1028100093420BD9B3EB420F4FEA420006D2B0F11C
:10282000804F2ABF6FF0404308600B60086801309A
:1028300001D500F070F8BDE8084000F05BB800BFBB
:10284000102D000810B50446FFF7D3FF20B920680B
:10285000BDE8104000F04CB810BD012A10B403D1FF
:102860000A7810BC0270704710BCFFF7BEBF08B5F5
:10287000521AFFF7F2FF08BD10B50446FFF7E2FF5A
:10288000204610BD00680844704773B5531A0F2BDB
:1028900004460D461646019306D9002201A9FFF70A
:1028A000AFFF019B2060A360324629462068FFF7F6
:1028B000DEFF0021019B22686360D15402B070BD2D
:1028C00038B500F1080304460D46036011B9074806
:1028D00000F024F80846FDF73BFC4FF000032A18EF
:1028E00029462046FFF7D1FF204638BD282D000895
:1028F00000F032B8012838BF012010B50446204648
:1029000000F022F800B110BD00F00EF808B900F098
:1029100013F88047F3E708B500F00EF808B500F0AB
:102920000BF808B500F008F8024B1868BFF35B8F8E
:10293000704700BF702A0020062008B500F0F2F8AA
:102940000120FEF746FE0000024B0146186800F029
:102950002DB800BF10000020024B0146186800F09F
:1029600047B900BF1000002070B50F4E0C4631680B
:10297000054611B900F0F2F830602146284600F013
:10298000EDF8431C03D14FF0FF34204670BDC41C4A
:1029900024F00304A042F8D0211A284600F0DEF803
:1029A0000130F2D1EFE700BF742A00202DE9F8438F
:1029B000CD1C25F0030508350C2D38BF0C25002D46
:1029C000064601DBA94204D90C2333600020BDE890
:1029D000F883DFF8D48000F069F8D8F800301C469E
:1029E00044BB29463046FFF7BFFF431C044658D17D
:1029F000D8F800402746002F43D1002C4BD0236845
:102A00003946304604EB030900F0A8F8814542D16D
:102A1000216830466D1A2946FFF7A6FF01303AD0EB
:102A200023682B442360D8F800305A6862BBC8F88A
:102A300000700FE02268521B20D40B2A17D96119AD
:102A4000A342256018BF5960636808BFC8F800102A
:102A500062514B60304600F02FF804F10B00231D4B
:102A600020F00700C21A1CBF1B1AA350AFE7626810
:102A7000A3420CBFC8F800205A60EBE72346646805
:102A8000AEE73C467F68B6E71A465B68A342FBD1D7
:102A900000235360DEE70C233046336000F00CF86F
:102AA00094E70560D6E700BF782A0020014800F0CF
:102AB0008FB800BFB82B0020014800F08AB800BFD3
:102AC000B82B002003460244934200D1704703F81C
:102AD000011BF9E71F2938B505460C4604D9162312
:102AE00003604FF0FF3038BDC26B12B152F8213095
:102AF0004BB9284600F030F8224601462846BDE88A
:102B0000384000F017B8012B0AD0591C03D1162306
:102B100003600120E7E70021204642F8241098478F
:102B20000020E0E7024B01461868FFF7D3BF00BF63
:102B30001000002038B50023064D04460846114613
:102B40002B60FEF736FD431C02D12B6803B12360D6
:102B500038BD00BFB42B0020FEF724BD38B50023DC
:102B6000054D044608462B60FEF73EFD431C02D18E
:102B70002B6803B1236038BDB42B0020014B1868CB
:102B8000704700BF1000002070B500260C4D0D4CA2
:102B9000641BA410A64209D100F072F800260A4D69
:102BA0000A4C641BA410A64205D170BD55F8043B25
:102BB00098470136EEE755F8043B98470136F2E7AF
:102BC000642D0008642D0008642D0008702D000895
:102BD000704770470A44914200F1FF3300D17047BB
:102BE00010B511F8014B914203F8014FF9D110BD16
:102BF00038B50546002940D051F8043C0C1F002B85
:102C0000B8BFE418FFF752FF1C4A136833B963607A
:102C100014602846BDE83840FFF74EBFA34208D9EC
:102C2000206821188B4201BF19685B680918216070
:102C3000EDE71A465B680BB1A342FAD91168501848
:102C4000A0420BD120680144501883421160E0D1AA
:102C500018685B68084410605360DAE702D90C23F7
:102C60002B60D6E7206821188B4201BF19685B688A
:102C70000918216063605460CBE738BD782A0020D2
:102C8000F8B500BFF8BC08BC9E467047F8B500BF59
:082C9000F8BC08BC9E46704729
:102C9800756172745F636F6D000000007561727416
:102CA8005F726563000000004E4F2055415254206A
:102CB80077697468207468697320616464726573E5
:102CC8007320697320417661696C61626C652121AA
:102CD800200D0A0049444C45000000004E4F205585
:102CE800415254207769746820746869732061645C
:102CF800647265737320697320417661696C6162DF
:102D08006C652121200D0A0062617369635F737429
:102D180072696E673A3A5F4D5F6372656174650008
:102D280062617369635F737472696E673A20636F77
:102D38006E737472756374696F6E2066726F6D203E
:102D48006E756C6C206973206E6F742076616C6987
:042D58006400000013
:082D5C00F4D3FF7F0100000029
:0C2D640035010008950900087D270008D3
:0C2D700011010008A50900088D270008CB
:102D7C00F8270000000C0140AAAAAAAA050000002E
:102D8C0014000020000000007C2A0020E42A00200F
:102D9C004C2B002000000000000000000000000090
:102DAC000000000000000000000000000000000017
:102DBC000000000000000000000000000000000007
:102DCC0000000000000000000000000000000000F7
:040000050800279D2B
:00000001FF
